{
  "transactions": [
    {
      "hash": "0xe5b6b42b21e6294e1ca11ae617d53ff6a541a960723776a8cb8a2a1233190397",
      "transactionType": "CALL",
      "contractName": null,
      "contractAddress": "0xb7cCfb9F66eaE7AC946F713987D47cE468476806",
      "function": "setEndTime(uint256)",
      "arguments": [
        "1720296454"
      ],
      "transaction": {
        "type": "0x02",
        "from": "0x4147440a09d1eb4ff4fdf33c1bf33aaa13cdfe8e",
        "to": "0xb7ccfb9f66eae7ac946f713987d47ce468476806",
        "gas": "0xa3d9",
        "value": "0x0",
        "data": "0xccb98ffc000000000000000000000000000000000000000000000000000000006689a406",
        "nonce": "0x12",
        "accessList": []
      },
      "additionalContracts": [],
      "isFixedGasLimit": false
    }
  ],
  "receipts": [
    {
      "transactionHash": "0xe5b6b42b21e6294e1ca11ae617d53ff6a541a960723776a8cb8a2a1233190397",
      "transactionIndex": "0x1",
      "blockHash": "0xeec3959268951c2b7c397cec06f794ebbac5ce38c093f83d62a84c7d8c4ed7f6",
      "blockNumber": "0xb48b17",
      "from": "0x4147440a09d1eB4Ff4fdf33c1BF33AAA13cDfE8E",
      "to": "0xb7cCfb9F66eaE7AC946F713987D47cE468476806",
      "cumulativeGasUsed": "0x11b30",
      "gasUsed": "0x7009",
      "contractAddress": null,
      "logs": [],
      "status": "0x1",
      "logsBloom": "0x00000000000000000000000000000000000000000000000000000000000000000000000000000000000000000000000000000000000000000000000000000000000000000000000000000000000000000000000000000000000000000000000000000000000000000000000000000000000000000000000000000000000000000000000000000000000000000000000000000000000000000000000000000000000000000000000000000000000000000000000000000000000000000000000000000000000000000000000000000000000000000000000000000000000000000000000000000000000000000000000000000000000000000000000000000000",
      "type": "0x2",
      "effectiveGasPrice": "0xb3b66979"
    }
  ],
  "libraries": [],
  "pending": [],
  "returns": {},
  "timestamp": 1719432486,
  "chain": 84532,
  "multi": false,
  "commit": "b94c30e"
}