{
  "transactions": [
    {
      "hash": "0xe5b6b42b21e6294e1ca11ae617d53ff6a541a960723776a8cb8a2a1233190397",
      "transactionType": "CALL",
      "contractName": null,
      "contractAddress": "0xb7cCfb9F66eaE7AC946F713987D47cE468476806",
      "function": "setEndTime(uint256)",
      "arguments": [
        "1720296454"
      ],
      "transaction": {
        "type": "0x02",
        "from": "0x4147440a09d1eb4ff4fdf33c1bf33aaa13cdfe8e",
        "to": "0xb7ccfb9f66eae7ac946f713987d47ce468476806",
        "gas": "0xa3d9",
        "value": "0x0",
        "data": "0xccb98ffc000000000000000000000000000000000000000000000000000000006689a406",
        "nonce": "0x12",
        "accessList": []
      },
      "additionalContracts": [],
      "isFixedGasLimit": false
    }
  ],
  "receipts": [],
  "libraries": [],
  "pending": [
    "0xe5b6b42b21e6294e1ca11ae617d53ff6a541a960723776a8cb8a2a1233190397"
  ],
  "returns": {},
  "timestamp": 1719432480,
  "chain": 84532,
  "multi": false,
  "commit": "b94c30e"
}